{
  "contractName": "EthExchange",
  "abi": [
    {
      "inputs": [
        {
          "internalType": "contract WiMeToken",
          "name": "_token",
          "type": "address"
        },
        {
          "internalType": "uint256",
          "name": "_rate",
          "type": "uint256"
        }
      ],
      "stateMutability": "nonpayable",
      "type": "constructor"
    },
    {
      "inputs": [],
      "name": "name",
      "outputs": [
        {
          "internalType": "string",
          "name": "",
          "type": "string"
        }
      ],
      "stateMutability": "view",
      "type": "function",
      "constant": true
    },
    {
      "inputs": [],
      "name": "rate",
      "outputs": [
        {
          "internalType": "uint256",
          "name": "",
          "type": "uint256"
        }
      ],
      "stateMutability": "view",
      "type": "function",
      "constant": true
    },
    {
      "inputs": [],
      "name": "token",
      "outputs": [
        {
          "internalType": "contract WiMeToken",
          "name": "",
          "type": "address"
        }
      ],
      "stateMutability": "view",
      "type": "function",
      "constant": true
    },
    {
      "inputs": [],
      "name": "buyTokens",
      "outputs": [],
      "stateMutability": "payable",
      "type": "function",
      "payable": true
    },
    {
      "inputs": [
        {
          "internalType": "uint256",
          "name": "_amount",
          "type": "uint256"
        }
      ],
      "name": "sellTokens",
      "outputs": [],
      "stateMutability": "nonpayable",
      "type": "function"
    }
  ],
  "bytecode": "0x608060405234801561001057600080fd5b506040516106c53803806106c58339818101604052604081101561003357600080fd5b5080516020918201516040805180820190915260168082527f57694d6520457468657265756d2045786368616e676500000000000000000000919094019081529192909161008491600091906100ae565b50600180546001600160a01b0319166001600160a01b039390931692909217909155600255610149565b828054600181600116156101000203166002900490600052602060002090601f016020900481019282601f106100ef57805160ff191683800117855561011c565b8280016001018555821561011c579182015b8281111561011c578251825591602001919060010190610101565b5061012892915061012c565b5090565b61014691905b808211156101285760008155600101610132565b90565b61056d806101586000396000f3fe60806040526004361061004a5760003560e01c806306fdde031461004f5780632c4e722e146100d95780636c11bcd314610100578063d0febe4c1461012c578063fc0c546a14610134575b600080fd5b34801561005b57600080fd5b50610064610165565b6040805160208082528351818301528351919283929083019185019080838360005b8381101561009e578181015183820152602001610086565b50505050905090810190601f1680156100cb5780820380516001836020036101000a031916815260200191505b509250505060405180910390f35b3480156100e557600080fd5b506100ee6101f3565b60408051918252519081900360200190f35b34801561010c57600080fd5b5061012a6004803603602081101561012357600080fd5b50356101f9565b005b61012a6103e0565b34801561014057600080fd5b50610149610528565b604080516001600160a01b039092168252519081900360200190f35b6000805460408051602060026001851615610100026000190190941693909304601f810184900484028201840190925281815292918301828280156101eb5780601f106101c0576101008083540402835291602001916101eb565b820191906000526020600020905b8154815290600101906020018083116101ce57829003601f168201915b505050505081565b60025481565b600154604080516370a0823160e01b8152336004820152905183926001600160a01b0316916370a08231916024808301926020929190829003018186803b15801561024357600080fd5b505afa158015610257573d6000803e3d6000fd5b505050506040513d602081101561026d57600080fd5b505110156102c2576040805162461bcd60e51b815260206004820152601f60248201527f5573657220686173206e6f206d6f726520746f6b656e7320746f2073656c6c00604482015290519081900360640190fd5b600060025482816102cf57fe5b0490503031811115610328576040805162461bcd60e51b815260206004820152601a60248201527f45786368616e676520686173206e6f206d6f7265206574686572000000000000604482015290519081900360640190fd5b600154604080516323b872dd60e01b81523360048201523060248201526044810185905290516001600160a01b03909216916323b872dd916064808201926020929091908290030181600087803b15801561038257600080fd5b505af1158015610396573d6000803e3d6000fd5b505050506040513d60208110156103ac57600080fd5b5050604051339082156108fc029083906000818181858888f193505050501580156103db573d6000803e3d6000fd5b505050565b600254600154604080516370a0823160e01b81523060048201529051349093029283926001600160a01b0316916370a08231916024808301926020929190829003018186803b15801561043257600080fd5b505afa158015610446573d6000803e3d6000fd5b505050506040513d602081101561045c57600080fd5b505110156104aa576040805162461bcd60e51b815260206004820152601660248201527545786368616e676520686173206e6f20746f6b656e7360501b604482015290519081900360640190fd5b6001546040805163a9059cbb60e01b81523360048201526024810184905290516001600160a01b039092169163a9059cbb916044808201926020929091908290030181600087803b1580156104fe57600080fd5b505af1158015610512573d6000803e3d6000fd5b505050506040513d60208110156103db57600080fd5b6001546001600160a01b03168156fea2646970667358221220b6b1e4c74bf20d5fbbfc5174428c8599d9b281478fd2f5c83426a0d856cab2a464736f6c63430006040033",
  "source": "pragma solidity >=0.4.21 <0.7.0;\n\nimport \"./WiMeToken.sol\";\n\ncontract EthExchange {\n  string public name;\n  WiMeToken public token;\n  uint public rate;\n\n  constructor(WiMeToken _token, uint _rate) public {\n    name = \"WiMe Ethereum Exchange\";\n    token = _token;\n    rate = _rate;\n  }\n\n  function buyTokens() public payable {\n    uint tokenAmount = msg.value * rate;\n    require(token.balanceOf(address(this)) >= tokenAmount, \"Exchange has no tokens\");\n    token.transfer(msg.sender, tokenAmount);\n  }\n\n  function sellTokens(uint _amount) public {\n    require(token.balanceOf(msg.sender) >= _amount, \"User has no more tokens to sell\");\n    uint etherAmount = _amount / rate;\n    require(address(this).balance >= etherAmount, \"Exchange has no more ether\");\n    token.transferFrom(msg.sender, address(this), _amount);\n    msg.sender.transfer(etherAmount);\n  }\n}",
  "sourcePath": "/home/eamonn/Documents/fyp2/ethereum/contracts/EthExchange.sol",
  "compiler": {
    "name": "solc",
    "version": "0.6.4+commit.1dca32f3.Emscripten.clang"
  },
  "schemaVersion": "3.0.23",
  "updatedAt": "2020-04-11T04:49:46.922Z",
  "networkType": "ethereum",
  "devdoc": {
    "methods": {}
  },
  "userdoc": {
    "methods": {}
  }
}