{
  "contractName": "Marketplace",
  "abi": [
    {
      "inputs": [],
      "stateMutability": "nonpayable",
      "type": "constructor"
    },
    {
      "anonymous": false,
      "inputs": [
        {
          "indexed": false,
          "internalType": "uint256",
          "name": "id",
          "type": "uint256"
        },
        {
          "indexed": false,
          "internalType": "string",
          "name": "name",
          "type": "string"
        },
        {
          "indexed": false,
          "internalType": "uint256",
          "name": "price",
          "type": "uint256"
        },
        {
          "indexed": false,
          "internalType": "address",
          "name": "owner",
          "type": "address"
        },
        {
          "indexed": false,
          "internalType": "bool",
          "name": "purchased",
          "type": "bool"
        }
      ],
      "name": "ItemCreated",
      "type": "event"
    },
    {
      "inputs": [],
      "name": "index",
      "outputs": [
        {
          "internalType": "uint256",
          "name": "",
          "type": "uint256"
        }
      ],
      "stateMutability": "view",
      "type": "function"
    },
    {
      "inputs": [
        {
          "internalType": "uint256",
          "name": "",
          "type": "uint256"
        }
      ],
      "name": "items",
      "outputs": [
        {
          "internalType": "uint256",
          "name": "id",
          "type": "uint256"
        },
        {
          "internalType": "string",
          "name": "name",
          "type": "string"
        },
        {
          "internalType": "uint256",
          "name": "price",
          "type": "uint256"
        },
        {
          "internalType": "address",
          "name": "owner",
          "type": "address"
        },
        {
          "internalType": "bool",
          "name": "purchased",
          "type": "bool"
        }
      ],
      "stateMutability": "view",
      "type": "function"
    },
    {
      "inputs": [],
      "name": "name",
      "outputs": [
        {
          "internalType": "string",
          "name": "",
          "type": "string"
        }
      ],
      "stateMutability": "view",
      "type": "function"
    },
    {
      "inputs": [
        {
          "internalType": "string",
          "name": "_itemName",
          "type": "string"
        },
        {
          "internalType": "uint256",
          "name": "_itemPrice",
          "type": "uint256"
        }
      ],
      "name": "createItem",
      "outputs": [],
      "stateMutability": "nonpayable",
      "type": "function"
    }
  ],
  "bytecode": "0x6080604052600060025534801561001557600080fd5b506040805180820190915260108082527f57694d65204d61726b6574706c61636500000000000000000000000000000000602090920191825261005a91600091610060565b506100fb565b828054600181600116156101000203166002900490600052602060002090601f016020900481019282601f106100a157805160ff19168380011785556100ce565b828001600101855582156100ce579182015b828111156100ce5782518255916020019190600101906100b3565b506100da9291506100de565b5090565b6100f891905b808211156100da57600081556001016100e4565b90565b6105f28061010a6000396000f3fe608060405234801561001057600080fd5b506004361061004c5760003560e01c806306fdde03146100515780632986c0e5146100ce5780638c551742146100e8578063bfb231d214610192575b600080fd5b61005961024d565b6040805160208082528351818301528351919283929083019185019080838360005b8381101561009357818101518382015260200161007b565b50505050905090810190601f1680156100c05780820380516001836020036101000a031916815260200191505b509250505060405180910390f35b6100d66102db565b60408051918252519081900360200190f35b610190600480360360408110156100fe57600080fd5b81019060208101813564010000000081111561011957600080fd5b82018360208201111561012b57600080fd5b8035906020019184600183028401116401000000008311171561014d57600080fd5b91908080601f01602080910402602001604051908101604052809392919081815260200183838082843760009201919091525092955050913592506102e1915050565b005b6101af600480360360208110156101a857600080fd5b503561045a565b604080518681529081018490526001600160a01b0383166060820152811515608082015260a06020808301828152875192840192909252865160c084019188019080838360005b8381101561020e5781810151838201526020016101f6565b50505050905090810190601f16801561023b5780820380516001836020036101000a031916815260200191505b50965050505050505060405180910390f35b6000805460408051602060026001851615610100026000190190941693909304601f810184900484028201840190925281815292918301828280156102d35780601f106102a8576101008083540402835291602001916102d3565b820191906000526020600020905b8154815290600101906020018083116102b657829003601f168201915b505050505081565b60025481565b600280546001908101918290556040805160a08101825283815260208082018781528284018790523360608401526000608084018190529586528482529290942081518155915180519194929361033e9390850192910190610521565b50604082810151600280840191909155606080850151600390940180546080968701511515600160a01b0260ff60a01b196001600160a01b039097166001600160a01b031990921691909117959095169490941790935554815181815291820185905233928201839052600093820184905260a0602080840182815288519285019290925287517f8dcfbc28c69b9a8e1e4db999ccf9bf4341eec5b29cf99bb6d0eb9f0a17dd2e249693958995899591949193909260c0840191880190808383885b83811015610418578181015183820152602001610400565b50505050905090810190601f1680156104455780820380516001836020036101000a031916815260200191505b50965050505050505060405180910390a15050565b600160208181526000928352604092839020805481840180548651600296821615610100026000190190911695909504601f810185900485028601850190965285855290949193929091908301828280156104f65780601f106104cb576101008083540402835291602001916104f6565b820191906000526020600020905b8154815290600101906020018083116104d957829003601f168201915b5050505060028301546003909301549192916001600160a01b0381169150600160a01b900460ff1685565b828054600181600116156101000203166002900490600052602060002090601f016020900481019282601f1061056257805160ff191683800117855561058f565b8280016001018555821561058f579182015b8281111561058f578251825591602001919060010190610574565b5061059b92915061059f565b5090565b6105b991905b8082111561059b57600081556001016105a5565b9056fea2646970667358221220ddf4d4813fde95196d3bc6659186c8e2d50353ce59fefbd37ad05e8ce056ab3564736f6c63430006040033",
  "source": "pragma solidity >=0.4.21 <0.7.0;\n\ncontract Marketplace {\n  string public name;\n\n  struct Item {\n    uint id;\n    string name;\n    uint price;\n    address owner;\n    bool purchased; // change this to enum state\n  }\n\n  event ItemCreated(\n    uint id,\n    string name,\n    uint price,\n    address owner,\n    bool purchased\n  );\n\n  mapping(uint => Item) public items;\n  uint public index = 0;\n\n  constructor() public {\n    name = \"WiMe Marketplace\";\n  }\n\n  function createItem(string memory _itemName, uint _itemPrice) public {\n    index++;\n    items[index] = Item(index, _itemName, _itemPrice, msg.sender, false);\n    emit ItemCreated(index, _itemName, _itemPrice, msg.sender, false);\n  }\n}",
  "sourcePath": "/home/eamonn/Documents/fyp2/ethereum/contracts/Marketplace.sol",
  "compiler": {
    "name": "solc",
    "version": "0.6.4+commit.1dca32f3.Emscripten.clang"
  },
  "schemaVersion": "3.0.23",
  "updatedAt": "2020-04-04T19:33:51.665Z",
  "devdoc": {
    "methods": {}
  },
  "userdoc": {
    "methods": {}
  }
}